:020000040800F2
:100000000004002067140008D5020008D702000889
:10001000DB020008DF020008E30200080000000025
:10002000000000000000000000000000E7020008DF
:10003000E902000800000000EB020008ED020008E1
:100040008714000887140008871400088714000824
:100050008714000887140008871400080B1700088D
:100060008714000887140008871400088714000804
:1000700087140008871400088714000887140008F4
:1000800087140008871400088714000887140008E4
:1000900087140008871400088714000887140008D4
:1000A00087140008871400088714000887140008C4
:1000B00087140008871400088714000887140008B4
:1000C00087140008871400088714000887140008A4
:1000D00087140008EF020008FD02000887140008DA
:1000E0008714000887140008871400088714000884
:1000F0008714000887140008871400088714000874
:100100008714000887140008871400088714000863
:100110008714000887140008871400088714000853
:100120008714000887140008871400088714000843
:1001300000F002F800F03AF80AA090E8000C8244BF
:100140008344AAF10107DA4501D100F02FF8AFF29C
:10015000090EBAE80F0013F0010F18BFFB1A43F0A5
:1001600001031847E420000004210000103A24BFD6
:1001700078C878C1FAD8520724BF30C830C144BF0C
:1001800004680C607047000000230024002500264E
:10019000103A28BF78C1FBD8520728BF30C148BFEA
:1001A0000B6070471FB51FBD10B510BD01F087FF74
:1001B0001146FFF7F7FF00F05AF801F0A5FF03B46E
:1001C000FFF7F2FF03BC01F0ADFF000000B585B002
:1001D0004FF4165001900020ADF80800ADF80A0069
:1001E000ADF80C000C20ADF80E000020ADF81000AA
:1001F00001A9364800F00BFD012240F22551334899
:1002000000F07FFD012240F22771304800F079FDB7
:1002100001212E4800F069FD4FF40070ADF8000098
:1002200003208DF8020018208DF803006946284845
:1002300000F0A4F94FF48060ADF8000004208DF8C0
:10024000030003208DF802006946214800F096F96A
:1002500005B000BD10B501F0DBF8012144F27D00CE
:1002600000F028FC0121480400F031FC10BDFFF72C
:10027000F1FF482000F046F8FFF7A8FF01F010FA60
:1002800000BFFEE770B505460C460BE014F8011BF5
:10029000284600F092FD00BF4021284600F0E4FD12
:1002A0000028F9D020780028F0D170BD70B5044640
:1002B0000D462946204600F080FD00BF4021204623
:1002C00000F0D2FD0028F9D070BD000000380140D8
:1002D00000080140704700BFFEE700BFFEE700BF17
:1002E000FEE700BFFEE7704770477047704710B5E4
:1002F00040F22551024800F0C3FD10BD70470000D8
:100300000038014010B504466FF0040000F0AFF86B
:10031000E11704EB5171C1F3C7012B4A117010466C
:10032000007800EB4001C1EBC0104FF6FF7101EA0D
:10033000C0002649088010BD0146234A12784A436E
:100340004FF0E0235A6100229A611A46126942F086
:1003500001021A6100BF4FF0E022106900F00102B3
:100360001AB100F48032002AF5D04FF0E022126971
:1003700022F001024FF0E0231A6100229A617047D7
:100380000146124A12884A434FF0E0235A61002284
:100390009A611A46126942F001021A6100BF4FF0D9
:1003A000E022106900F001021AB100F48032002A44
:1003B000F5D04FF0E022126922F001024FF0E02365
:1003C0001A6100229A61704700000020020000209C
:1003D00031490143314A1160704770B50021002353
:1003E0000F22C47804B32D4C246804F4E064C4F5EF
:1003F000E064210AC1F10403CA40447804FA03F11D
:100400008478144021430901254C0678A1550478CD
:1004100004F01F050124AC4005786D11AD0005F115
:10042000E025C5F8004109E0047804F01F05012427
:10043000AC401C4D0678761145F8264070BD1A4A2E
:100440000A400243154B1B1F1A60704739B1134A0B
:10045000121D12680243114B1B1D1A6006E00F4A61
:10046000121D126882430D4B1B1D1A607047042831
:1004700008D14FF0E021096941F004014FF0E0227A
:10048000116107E04FF0E021096921F004014FF00C
:10049000E0221161704700000000FA050CED00E059
:1004A00000E400E080E100E080FFFF1F10B504469B
:1004B000C649601A8C422FD009DCC548204480B15F
:1004C000B0F5806F16D0B0F5006F4AD11BE0B0F5E3
:1004D000806F2AD0B0F5006F30D0B0F5406F40D1BA
:1004E00035E00121042000F0FFFA0021042000F093
:1004F000FBFA37E00121082000F0F6FA002108207D
:1005000000F0F2FA2EE00121102000F0EDFA0021B7
:10051000102000F0E9FA25E00121202000F0E4FAA3
:100520000021202000F0E0FA1CE00121402000F032
:10053000DBFA0021402000F0D7FA13E001218020EF
:1005400000F0D2FA0021802000F0CEFA0AE001216A
:10055000080200F0C9FA00214FF4807000F0C4FADC
:1005600000E000BF00BF10BD10B50121084600F03B
:10057000BBFA0021012000F0B7FA10BD2DE9F041CF
:10058000024600250026002000230024002791F8C1
:1005900003C00CF00F0591F803C00CF0100CBCF177
:1005A000000F03D091F802C04CEA050591F800C095
:1005B000BCF1000F31D0146800202BE04FF0010C8B
:1005C0000CFA00F3B1F800C00CEA03069E4220D1F9
:1005D00083004FF00F0C0CFA03F7BC4305FA03FC41
:1005E0004CEA040491F803C0BCF1280F06D14FF087
:1005F000010C0CFA00FCC2F814C00AE091F803C028
:10060000BCF1480F05D14FF0010C0CFA00FCC2F808
:1006100010C0401C0828D1D31460B1F800C0BCF150
:10062000FF0F34DD546800202EE000F1080C4FF07D
:10063000010808FA0CF3B1F800C00CEA03069E4268
:1006400021D183004FF00F0C0CFA03F7BC4305FADD
:1006500003FC4CEA040491F803C0BCF1280F05D157
:1006600000F1080C08FA0CF8C2F8148091F803C0E5
:10067000BCF1480F07D100F1080C4FF0010808FA4F
:100680000CF8C2F81080401C0828CED35460BDE896
:10069000F0814FF6FF710180022181700421C17049
:1006A00070470246002093680B400BB1012000E028
:1006B000002070470146886880B2704702460020DB
:1006C000D3680B400BB1012000E0002070470146C9
:1006D000C86880B2704701617047416170470AB1D4
:1006E000016100E041617047C16070474FF48032A2
:1006F0000A43826181618261826982697047024630
:100700000020344B18684FF68073184040EA0210FE
:100710000843304B186070472F49C8617047F0B5E7
:100720000A4600230024002100252A4E7168C0F3E8
:10073000034583B200F44016B6F5401F08D121F0FE
:100740007061244E766826F07066224F7E6012E05B
:1007500000F48016B6F5801F06D1032606FA05F4CC
:10076000A14341F0706106E0460D360103FA06F63A
:10077000B14341F0706122B1460D360103FA06F62D
:100780003143144E7160F0BD30B500228B071C0F51
:100790000F2303FA04F20F4B08338C1053F8243064
:1007A00093430C4C08348D1044F8253023468C10AC
:1007B00053F824308C07240F00FA04F42343054C2B
:1007C00008348D1044F8253030BD0000001401407D
:1007D00000F8FEBF0000014000002042DE48006833
:1007E00040F00100DC49086008464068DB490840E9
:1007F000D949486008460068D9490840D649086088
:100800000846006820F4802008600846406820F40C
:10081000FE004860002088607047CF49096821F4D5
:100820008031CD4A11601146096821F480211160A0
:10083000B0F5803F03D0B0F5802F0ED106E0C64959
:10084000096841F48031C44A116007E0C24909686F
:1008500041F4A021C04A116000E000BF00BF704712
:1008600010B501460022002300204A11012A02D1BE
:10087000B94C236806E0022A02D1B74C236A01E092
:10088000B54C636A01F01F02012494401C400CB176
:10089000012000E0002010BD38B5002000900024A9
:1008A000002500BF3120FFF7DBFF05460098401C04
:1008B00000901DB90098B0F5A06FF3D13120FFF77B
:1008C000CFFF08B1012400E00024204638BD0146D6
:1008D0000020A14A106820F0F80040EAC100106032
:1008E0007047A04908607047024600209A4B58683C
:1008F00020F47C1042EA01031843974B586070477C
:1009000098490866704701460020934A506820F0D5
:1009100003000843506070478F48406800F00C00A7
:100920007047014600208C4A506820F0F0000843D0
:100930005060704701460020874A506820F4E0600C
:1009400008435060704701460020834A506820F4F5
:10095000605040EAC1005060704729B17E4A527A27
:1009600002437D4B5A7204E07B4A527A82437A4BAF
:100970005A7270477B49D8310860704701460020A1
:10098000754A506820F44040084350607047002189
:10099000714A20321170704A82F82010012802D06A
:1009A00004280AD104E001216B4A2032117005E0CD
:1009B0000521694A2032117000E000BF00BF704776
:1009C0006949086070476449096A0143624A1162D3
:1009D0007047654944390860704730B500210022EE
:1009E000002400235C4D6D6805F00C0121B1042941
:1009F00005D0082923D105E05C4D056022E05B4D60
:100A000005601FE0544D6D6805F47012022505EB7A
:100A10009242514D6D6805F480341CB9544D5543D4
:100A200005600BE04C4D6D6805F400351DB1504D6F
:100A30005543056002E04D4D5543056002E04B4DC6
:100A4000056000BF00BF444D6D6805F0F001090965
:100A5000484D6B5C0568DD4045603F4D6D6805F4B1
:100A6000E061090A434D6B5C4568DD4085603A4DA5
:100A70006D6805F46051C90A3E4D6B5C4568DD4008
:100A8000C560354D6D6805F44041890B3A4D6B5C8E
:100A9000C568B5FBF3F5056130BD29B12E4A526931
:100AA00002432D4B5A6104E02B4A526982432A4B80
:100AB0005A61704729B1284A92690243264B9A61CC
:100AC00004E0254A92698243234B9A61704729B119
:100AD000214AD2690243204BDA6104E01E4AD269FE
:100AE00082431D4BDA61704729B11B4AD268024329
:100AF000194BDA6004E0184AD2688243164BDA6078
:100B0000704729B1144A12690243134B1A6104E079
:100B1000114A12698243104B1A61704712494039D9
:100B2000086070470F49C86470470B49C871704727
:100B30000948406A40F080700749486270470146A2
:100B40000020054A92680A400AB1012000E0002016
:100B50007047014988727047001002400000FFF89A
:100B6000FFFFF6FE000042428004424200127A007B
:100B700000093D00040000201400002010B50446C8
:100B8000D749601A8C422BD006DCD648204498B155
:100B9000B0F5806F38D119E0B0F5806F2AD0B0F58C
:100BA0006C4F31D101218803FFF79EFF00214FF4E4
:100BB0008040FFF799FF28E001214804FFF7A1FFDB
:100BC00000214FF40030FFF79CFF1EE00121880454
:100BD000FFF797FF00214FF48020FFF792FF14E00A
:100BE0000121C804FFF78DFF00214FF40020FFF71B
:100BF00088FF0AE001210805FFF783FF00214FF479
:100C00008010FFF77EFF00E000BF00BF10BD2DE9A0
:100C1000F04786B005460E460024A24600BF00BF3E
:100C200000272F462C8A4CF6FF700440F0880443BE
:100C30002C82AC894EF6F3100440B0883189084309
:100C4000718908430443AC81AC8A4FF6FF400440ED
:100C5000B0890443AC8201A8FFF7BFFEA2488742D7
:100C600002D1DDF810A001E0DDF80CA00AEBCA000B
:100C700000EB0A1031688900B0FBF1F86420B8FB82
:100C8000F0F004012009642101FB1089322000EBFF
:100C90000910B0FBF1F000F00F0004432C8106B006
:100CA000BDE8F0874FF41651016000218180C180BA
:100CB00001810C21418100218181704710B50246DC
:100CC0000020108A4FF2FF0318400B884C88234302
:100CD0008C882343CC8823431843108210BD002105
:100CE000018041808180C180704721B1828942F4B6
:100CF0000052828104E082894DF6FF731A4082819E
:100D00007047F0B503460024002600250020184651
:100D1000C1F3421401F01F06012707FA06F5012C62
:100D200001D10C3004E0022C01D1103000E014306D
:100D30001AB107682F43076002E00768AF430760F6
:100D4000F0BD1AB1838A0B43838202E0838A8B430E
:100D500083827047028A4FF6F0731A400282028A39
:100D60000A430282704782894FF2FF731A408281E0
:100D700082890A438281704721B1828942F002024E
:100D8000828104E082894FF6FD731A4082817047A8
:100D9000028A4FF6DF731A400282028A0A430282F5
:100DA000704721B1028A42F48042028204E0028A42
:100DB0004BF6FF731A4002827047C1F3080282802B
:100DC000704701468888C0F308007047818941F068
:100DD000010181817047028BD2B20283028B42EA09
:100DE000012202837047028B02F47F420283028B4E
:100DF0000A430283704721B1828A42F02002828234
:100E000004E0828A4FF6DF731A408282704721B174
:100E1000828A42F01002828204E0828A4FF6EF73E7
:100E20001A408282704721B1828A42F0080282828F
:100E300004E0828A4FF6F7731A4082827047828AF2
:100E40004FF6FB731A408282828A0A43828270477D
:100E500021B1828A42F00202828204E0828A4FF645
:100E6000FD731A40828270470246002013880B40AF
:100E70000BB1012000E000207047CA430280704798
:100E800070B502460B460024002100250020C3F364
:100E9000421503F01F01012606FA01F1012D02D1CE
:100EA0009689314006E0022D02D1168A314001E0D8
:100EB000968A31401C12012606FA04F41688344042
:100EC00011B10CB1012000E0002070BD10B500226E
:100ED00000230A1201249440A3B2DC43048010BD15
:100EE000004C004000BCFFBF0038014000204C49CE
:100EF0000860091D0860091D0860091D086049484F
:100F000047491431086070478179002946D0444927
:100F1000096802689143424A1160111D096802681C
:100F200091433F4A121D116001793F4A1144D1F8A3
:100F300000140268114302793B4B1A44C2F80014B2
:100F400037490831096802689143354A083211600F
:100F5000111D096802689143314A0C3211604179D0
:100F600010290ED1111F0968026811432C4A08325A
:100F70001160111D096802681143294A0C32116081
:100F800018E04179284A1144D1F80014026811434D
:100F90004279254B1A44C2F800140BE00179224A29
:100FA0001144D1F800140268914302791E4B1A448F
:100FB000C2F8001470470021016001710C214171D9
:100FC0000021817170471649103109680143144AA4
:100FD00010321160704701460020114A1432126825
:100FE0000A400AB1012000E0002070470C4914318A
:100FF00008607047014600200022094B1B6803EA85
:101000000102074B14331B680B4013B10AB10120D6
:1010100000E000207047024914310860704700006A
:1010200000040140FFFF07000000014010B5044626
:10103000BD48204478B1B0F5806F16D0B0F5784F38
:101040001DD101210803FFF74FFD00214FF480500F
:10105000FFF74AFD14E001218803FFF752FD00214C
:101060004FF48040FFF74DFD0AE00121C803FFF770
:1010700048FD00214FF40040FFF743FD00E000BFB2
:1010800000BF10BD10B50022028802F441520B8847
:101090004C8823438C882343CC8823430C892343E7
:1010A0004C8923438C892343CC8923431A430280F0
:1010B000838B4FF2FF74234083830B8A038210BD1E
:1010C0002DE9F04786B005460C464FF0000902278F
:1010D0004FF000084FF0010A0026A88B4FF24001A4
:1010E0000840A88302202884B5F81C902089022893
:1010F00001D100BF31E0A08810B94FF0010A01E032
:101100004FF0020A01A8FFF768FCE088B0F5007F05
:101110000AD1019800EB8000400021890902B0FB50
:10112000F1F0401D86B20BE04FEA4A102189484396
:10113000019901EB81014900B1FBF0F0401D86B23D
:101140000A20B6FBF0F606F00108A6EB0800C0F393
:101150004F074FF6FF7000EA0828022F01DBFF2F30
:1011600002DD02274FF0000847EA0800E188084343
:101170002884208840F4006061880843A1880843DF
:101180006189084340EA0909A5F81C9006B0BDE84A
:10119000F0870021018041808180C18001814181EF
:1011A0008181C18107210182704700210180418036
:1011B0008180C1800221018100214181704721B1DC
:1011C000028842F04002028004E002884FF6BF73BA
:1011D0001A400280704721B1828B42F48062828380
:1011E00004E0828B4FF6FF331A408283704730B59C
:1011F000002400230C110125A540ABB21AB185884B
:101200001D43858002E085889D43858030BD1AB1ED
:1012100083880B43838002E083888B4383807047FD
:10122000818170470146888970474FF6FF6291427D
:1012300004D0028842F48072028004E002884FF6F3
:10124000FF631A400280704721B1828842F0040295
:10125000828004E082884FF6FB731A4082807047D8
:1012600002884FF2FF731A40028002880A4302800C
:101270007047018841F480510180704721B1028894
:1012800042F40052028004E002884DF6FF731A40D7
:101290000280704702460020012901D0108B00E037
:1012A000908A70470146088A7047B1F5804F04D193
:1012B000028842F48042028004E002884BF6FF7309
:1012C0001A40028070470246002013890B400BB180
:1012D000012000E000207047CA4302817047F0B54A
:1012E0000246002000240023002501F00F070126FC
:1012F000BE40B4B20B1101269E40B3B2968806EAF6
:1013000003051689264016B10DB1012000E000202A
:10131000F0BD10B5002201F00F040123A3409AB2E2
:10132000D343038110BD000000C8FFBF0CB50020EF
:10133000019000904748006840F4803045490860BB
:1013400000BF4448006800F4003000900198401C41
:101350000190009818B90198B0F5A06FF1D13D48FF
:10136000006800F4003010B10120009001E000207E
:1013700000900098012844D13748006840F01000E0
:10138000354908600846006820F0030008600846F8
:10139000006840F0020008602E4840682D4948600F
:1013A0000846406848600846406840F480604860ED
:1013B0000846406820F47C1048600846406840F4C5
:1013C000E81048600846006840F08070086000BF80
:1013D0002048006800F000700028F9D01D484068DF
:1013E00020F003001B4948600846406840F00200B6
:1013F000486000BF1748406800F00C000828F9D189
:1014000001E000BFFEE70CBD10B5FFF78FFF10BD78
:1014100010B51048006840F001000E490860084609
:1014200040680E4908400B494860084600680C496E
:101430000840084908600846006820F480200860D9
:101440000846406820F4FE00486000208860FFF7EE
:10145000DBFF10BD00100240002002400000FFF83A
:10146000FFFFF6FE70470B4880470B4981F3088861
:101470000A480047FEE7FEE7FEE7FEE7FEE7FEE775
:10148000FEE7FEE7FEE7FEE705480649044A064B8D
:101490007047000065140008800200203101000838
:1014A00080000020800200208000002000BF011E7C
:1014B000A0F10100FBD1704730B5034600240025A0
:1014C00000BF08E0002503E07820FFF7EFFF6D1C68
:1014D0009D42F9D3641C052CF4D330BD70B50024B3
:1014E000002500BF1DE000F059FA6420FFF7E4FF7B
:1014F00000F095FA28B900F023F93220FFF7DCFF5D
:101500000DE00A20FFF7D8FF00F04CFA28B900F0F0
:1015100017F93220FFF7D0FF01E0012503E0601C3E
:10152000C4B2052CDFDB00BF284670BD00B587B014
:10153000012148F20800FFF7CAFA01217A48FFF7B3
:10154000EEF83820ADF8040003208DF806001820CE
:101550008DF8070001A97548FFF710F84FF40070E7
:10156000ADF8040003208DF8060010208DF8070068
:1015700001A96E48FFF702F84FF480716B48FFF73E
:10158000AAF800216A48FFF71AFE0020ADF808000B
:101590004FF48270ADF80A000020ADF80C00022074
:1015A000ADF80E000020ADF810004FF40070ADF85B
:1015B00012002820ADF814000020ADF81600072016
:1015C000ADF8180002A95A48FFF75CFD0121584800
:1015D000FFF7F5FD07B000BD1FB501211020FFF793
:1015E00069FA0220ADF8000004208DF80300032002
:1015F0008DF8020069464F48FEF7C0FF0121022026
:10160000FFF7C2F80220029000208DF80C000C2099
:101610008DF80D0001208DF80E0002A8FFF774FC74
:101620000220FFF7D0FC02214248FFF754F80220C5
:10163000FFF7DCFC0220FFF7EEFC07208DF804002A
:1016400000208DF805008DF8060001208DF80700B8
:1016500001A8FEF7C2FE1FBD08B501210C20FFF74F
:1016600029FA4FF4E070ADF8000003208DF8020075
:1016700010208DF8030069462C48FEF77FFF80217B
:101680002A48FFF728F808BD10B5FFF7E5FFFFF778
:10169000A3FFFFF74BFF00F087FA00F051F810BDF1
:1016A0000024FFF7F1FF00F0B3FA2DE022480078A4
:1016B000102815D003DC48B101281FD104E01128FF
:1016C0001DD031281AD100E000BF1CE001201A49CA
:1016D0000870FFF703FF10B931201749087012E0B6
:1016E00000F0F6F9044621461448FEF7DFFD2046D7
:1016F00000F04BFB00201049087004E000BF002000
:101700000D49087000BF00BFD0E710B50220FFF7F9
:1017100071FC38B100F0D7F80220FFF767FC022017
:10172000FFF779FC10BD000000023000000C014002
:10173000003C00400010014018000020003801402B
:1017400010B54021E548FEF7C6FF6420FFF7B4FE60
:101750004021E248FEF7C1FF6420FFF7ADFE4021C3
:10176000DE48FEF7B8FF6420FFF7A6FE4FF4807155
:10177000DA48FEF7B2FF6420FFF79EFE4FF4807157
:10178000D648FEF7A8FF6420FFF796FE0020D44954
:10179000087010BD10B5062000F0E5F935211720BE
:1017A00000F0C5F90520FFF787FE062000F0DBF901
:1017B0000321892000F0BBF90520FFF77DFE4321BE
:1017C000CF2000F0B4F90520FFF776FE0221CB20F0
:1017D00000F0ADF90A21112000F0A9F9C148007804
:1017E000402810D100211E2000F0A1F90F2119205E
:1017F00000F09DF918211B2000F099F92C211D20E3
:1018000000F095F90FE000211E2000F090F93F2133
:10181000192000F08CF948211B2000F088F91F21C5
:101820001D2000F084F90520FFF746FE0421CD209D
:1018300000F07DF94C21172000F079F90120FFF725
:101840003BFE0021B92000F072F94F21CF2000F0BB
:101850006EF9FF216F2000F06AF910BD10B5082065
:10186000A0490870FFF796FF0021BD2000F05FF946
:101870004821172000F05BF90520FFF71DFE8021AD
:101880003C2000F054F907213E2000F050F9FF21E0
:10189000382000F04CF907213A2000F048F90021E7
:1018A000402000F044F90821422000F040F90021D6
:1018B000442000F03CF90821462000F038F90120CE
:1018C000FFF7FAFD10BD10B500242B2000F04BF9F6
:1018D000854908700021292000F029F90021022003
:1018E00000F025F98048007800F01000C8B1B2205F
:1018F00000F039F9212814D1BF2000F034F935283F
:101900000FD1BA2000F02FF90446002C05DD042C7D
:1019100003DC10207249087006E01120704908703D
:1019200002E011206E49087000212B2000F0FFF822
:1019300000211C2000F0FBF80021292000F0F7F81E
:101940000021022000F0F3F800212B2000F0EFF836
:101950000021BA2000F0EBF80021BC2000F0E7F8ED
:101960000121082000F0E3F80021082000F0DFF852
:1019700010BD70B5002500240BE0B22000F0F3F894
:10198000212801D1012506E00A20FFF795FD601C02
:10199000C4B20A2CF1DB00BF284670BD10B5FFF7BA
:1019A0005DFF10BD10B54321352000F0C0F80921BE
:1019B0001C2000F0BCF82021BD2000F0B8F8012167
:1019C000082000F0B4F80520FFF776FD002108207C
:1019D00000F0ADF80520FFF76FFDFFF7CAFF08B96B
:1019E000002010BDFF21B22000F0A1F80621372011
:1019F00000F09DF80621372000F099F80520FFF748
:101A00005BFD0B211C2000F092F81021292000F032
:101A10008EF80021BD2000F08AF80120E1E770B5C2
:101A2000C8B04FF48A72314903A800F013FB30A20A
:101A300007CA8DE807000126002443E0FFF799FF5D
:101A400008B9002640E01DF80410C12000F06FF82E
:101A50000021C32000F06BF80421082000F067F893
:101A60000120FFF729FD0021082000F060F8012087
:101A7000FFF722FD002514E004EBC40000EB041086
:101A800003A90844405D00B90DE004EBC40000EB7D
:101A9000041003AA1044415D052000F048F8681CBA
:101AA000C5B2192DE8DB00BF2946B92000F03FF888
:101AB000FF21B22000F03BF80421372000F037F876
:101AC000601CC4B20B2CB9DB00BF304648B070BDFF
:101AD00010B5C52000F047F810BD0000000C014013
:101AE00018000020190000201A00002034210008EE
:101AF0000102030405060708090A0B0010B5044695
:101B000000BF02212648FFF7DEFB0028F9D021465E
:101B10002348FFF785FB00BF01212148FFF7D3FBD6
:101B20000028F9D01E48FFF77DFBC0B210BD70B58C
:101B300005460C464FF480711A48FEF7CEFD4FF46F
:101B400000711848FEF7C9FD0420FFF7D7FF2846AB
:101B5000FFF7D4FF2046FFF7D1FF4FF48071114803
:101B6000FEF7B9FD70BD70B504464FF480710D48A5
:101B7000FEF7B3FD4FF400710A48FEF7AEFD0520F5
:101B8000FFF7BCFF2046FFF7B9FF0020FFF7B6FFC5
:101B900005464FF480710348FEF79DFD284670BD51
:101BA000003C0040000C014008B55D20ADF800008D
:101BB00003208DF8020010208DF803006946FE48CE
:101BC000FEF7DCFC0121FC48FEF785FD0421FA4804
:101BD000FEF781FD0821F848FEF77DFD1021F6484B
:101BE000FEF779FD4021F448FEF777FD08BD0CE0D3
:101BF000042107E0712201E0531EDAB2002AFBDC67
:101C00004B1ED9B20029F5DC401E0028F0D17047E8
:101C100010B51021E848FEF760FD0421E648FEF704
:101C20005AFD0821E448FEF756FD0121E248FEF77F
:101C300052FD9620FEF7A4FB1021DF48FEF74BFD76
:101C40000421DD48FEF749FD0821DB48FEF743FD8E
:101C50000121D948FEF73FFD9620FEF791FB1021A8
:101C6000D548FEF738FD0421D348FEF734FD08219E
:101C7000D148FEF732FD0121CF48FEF72CFD96201A
:101C8000FEF77EFB1021CC48FEF725FD0421CA4853
:101C9000FEF721FD0821C848FEF71DFD0121C648B9
:101CA000FEF71BFD9620FEF76BFB1021C248FEF7E6
:101CB00012FD0421C048FEF70EFD0821BE48FEF7C4
:101CC0000AFD0121BC48FEF706FD9620FEF758FBF1
:101CD0001021B948FEF7FFFC0421B748FEF7FBFCD2
:101CE0000821B548FEF7F7FC0121B348FEF7F5FCE3
:101CF0009620FEF745FB1021AF48FEF7ECFC0421CF
:101D0000AD48FEF7E8FC0821AB48FEF7E6FC0121F0
:101D1000A948FEF7E0FC9620FEF732FB1021A6480A
:101D2000FEF7D9FC0421A448FEF7D7FC0821A248FD
:101D3000FEF7D1FC0121A048FEF7CDFC9620FEF76E
:101D40001FFB10219C48FEF7C8FC04219A48FEF7AF
:101D5000C2FC08219848FEF7BEFC01219648FEF718
:101D6000BAFC9620FEF70CFB10219348FEF7B3FC5B
:101D700004219148FEF7AFFC08218F48FEF7ABFC29
:101D800001218D48FEF7A7FC10BD10B504460C2CB0
:101D90007ED2DFE804F07D060B102132F6F4F3F278
:101DA000F1F010218448FEF798FC4EE110218248A2
:101DB000FEF791FC49E110217F48FEF78EFC0421DB
:101DC0007D48FEF78AFC08217B48FEF786FC01214E
:101DD0007948FEF782FC38E110217748FEF77BFC5A
:101DE00004217548FEF777FC08217348FEF773FC61
:101DF00001217148FEF76FFC27E110216E48FEF7C4
:101E00006CFC04216C48FEF766FC08216A48FEF76A
:101E100062FC01216848FEF75EFC9620FEF7B0FAEE
:101E200010216548FEF757FC04216348FEF755FC76
:101E300008216148FEF74FFC01215F48FEF74BFC8B
:101E40009620FEF79DFA10215B48FEF744FC042122
:101E50005948FEF740FC08215748FEF73EFC012197
:101E60005548FEF738FC9620FEF78AFA10215248B2
:101E7000FEF731FC04215048FEF72DFC08214E48A6
:101E8000FEF729FC01214C48FEF727FC962000E0D4
:101E9000DAE0FEF775FA10214748FEF71CFC042132
:101EA0004548FEF718FC08214348FEF714FC0121C1
:101EB0004148FEF710FC9620FEF762FA10213E48DA
:101EC000FEF709FC04213C48FEF705FC08213A48CE
:101ED000FEF701FC01213848FEF7FFFB9620FEF7D4
:101EE0004FFA10213448FEF7F6FB04213248FEF782
:101EF000F2FB08213048FEF7F0FB01212E48FEF7E7
:101F0000EAFB9620FEF73CFA10212B48FEF7E3FB94
:101F100004212948FEF7E1FB08212748FEF7DBFBF7
:101F200001212548FEF7D7FB9620FEF729FA10215C
:101F30002148FEF7D2FB04211F48FEF7CCFB082105
:101F40001D48FEF7C8FB01211B48FEF7C4FB962085
:101F5000FEF716FA10211848FEF7BDFB04211648BB
:101F6000FEF7B9FB08211448FEF7B5FB0121124822
:101F7000FEF7B1FB69E066E064E062E054E04EE049
:101F8000FFE710210C48FEF7A8FB04210A48FEF7E2
:101F9000A4FB08210848FEF7A0FB01210648FEF734
:101FA0009CFB9620FEF7ECF910210348FEF793FB0B
:101FB0000421014802E0000000100140FEF78BFB05
:101FC00008212348FEF787FB01212148FEF783FB08
:101FD0009620FEF7D5F910211D48FEF77EFB04215F
:101FE0001B48FEF77AFB08211948FEF776FB012112
:101FF0001748FEF772FB9620FEF7C2F9102114482D
:10200000FEF769FB04211248FEF765FB0821104822
:10201000FEF761FB01210E48FEF75DFB15E0402154
:102020000B48FEF758FB10E040210948FEF753FB30
:102030004FF47A70FEF7A4F940210548FEF74DFBF6
:1020400003E002E001E000E000BF00BF10BD0000BF
:102050000010014010B5203AC0F00B80B1E81850D4
:10206000203AA0E81850B1E81850A0E81850BFF482
:10207000F5AF5FEA027C24BFB1E81850A0E8185021
:1020800044BF18C918C0BDE810405FEA827C24BF75
:1020900051F8043B40F8043B08BF7047D20728BF03
:1020A00031F8023B48BF11F8012B28BF20F8023B52
:1020B00048BF00F8012B704770477047704775465E
:1020C00000F02CF8AE4605006946534620F00700A4
:1020D000854618B020B5FFF7D7F9BDE820404FF08E
:1020E00000064FF000074FF000084FF0000B21F002
:1020F0000701AC46ACE8C009ACE8C009ACE8C009CF
:10210000ACE8C0098D46704710B50446AFF30080B7
:102110002046BDE81040FEF752B800000048704766
:102120001C00002001491820ABBEFEE7260002007B
:10213000704700006B6169202064656E67000000D5
:102140000000000000000000000000000067756152
:102150006E206269206469616E2064656E670000AC
:102160000000000000007175616E206275206465DA
:102170006E67206461206B616900000000000071DF
:1021800075616E206275206775616E20626900005E
:1021900000000000000000006C697520736875691C
:1021A0002064656E67000000000000000000000071
:1021B000007368616E207368756F2064656E6700D8
:1021C000000000000000000000006461206B6169F5
:1021D000206A69206469616E207169000000000056
:1021E0000000006A69206469616E20716920646979
:1021F000616E20646F6E670000000000626F2066F1
:10220000616E6720676520717500000000000000A6
:1022100000000000006E69206A69616F20736865C4
:102220006E206D65206D696E67207A6900006E69A9
:1022300020687569207A756F207368656E206D65FA
:1022400000000000000000006822000800000020DC
:102250001C0000006C010008842200081C00002003
:102260006402000088010008000000000000000077
:102270000102030401020304060708090204060818
:04228000000000005A
:0400000508000131BD
:00000001FF
