:020000040800F2
:10000000000700206501000855100008390F00089E
:1000100000000000000000000000000000000000E0
:10002000000000000000000000000000591000085F
:100030000000000000000000571000085B100008DE
:100040007701000800000000770100087701000830
:1000500077010008770100087701000877010008A0
:100060000000000077010008770100087701000810
:100070007701000877010008770100080000000000
:100080007701000800000000000000007701000870
:1000900000000000770100087701000877010008E0
:1000A0007701000877010008770100087701000850
:1000B00077010008000000000000000000000000C0
:1000C00000F002F800F03EF80CA030C80838241800
:1000D0002D18A246671EAB4654465D46AC4201D180
:1000E00000F030F87E460F3E0FCCB6460126334274
:1000F00000D0FB1AA246AB463343184760140000F9
:1001000080140000103A02D378C878C1FAD8520798
:1001100001D330C830C101D504680C6070470000BD
:100120000023002400250026103A01D378C1FBD813
:10013000520700D330C100D50B6070471FB51FBDFB
:1001400010B510BD00F0FAF81146FFF7F7FF01F007
:10015000B7F900F012F903B4FFF7F2FF03BC00F0A7
:1001600019F900000748804707480047FEE7FEE707
:10017000FEE7FEE7FEE7FEE704480549054A064BB1
:1001800070470000CB100008C100000800010020EB
:1001900000070020000300200003002001E004C04D
:1001A000091F0429FBD28B0701D50280801CC907D7
:1001B00000D00270704700290BD0C30702D0027034
:1001C000401C491E022904D3830702D50280801CEB
:1001D000891EE3E70022EEE70022DFE700220309A1
:1001E0008B422CD3030A8B4211D300239C464EE052
:1001F00003460B433CD4002243088B4231D303090E
:100200008B421CD3030A8B4201D394463FE0C309BF
:100210008B4201D3CB01C01A524183098B4201D3D7
:100220008B01C01A524143098B4201D34B01C01AC2
:10023000524103098B4201D30B01C01A5241C3083A
:100240008B4201D3CB00C01A524183088B4201D3A9
:100250008B00C01A524143088B4201D34B00C01A95
:100260005241411A00D201465241104670475DE0AA
:10027000CA0F00D04942031000D34042534000222D
:100280009C4603098B422DD3030A8B4212D3FC22D6
:10029000890112BA030A8B420CD3890192118B4255
:1002A00008D3890192118B4204D389013AD092116B
:1002B00000E08909C3098B4201D3CB01C01A524126
:1002C00083098B4201D38B01C01A524143098B42EF
:1002D00001D34B01C01A524103098B4201D30B01D8
:1002E000C01A5241C3088B4201D3CB00C01A5241FD
:1002F00083088B4201D38B00C01A5241D9D24308E4
:100300008B4201D34B00C01A5241411A00D2014620
:10031000634652415B10104601D34042002B00D58A
:100320004942704763465B1000D3404201B500204C
:10033000C046C04602BD704770477047754600F022
:1003400025F8AE46050069465346C008C0008546FC
:1003500018B020B5FFF710FF60BC00274908B6466B
:100360000026C0C5C0C5C0C5C0C5C0C5C0C5C0C5C4
:10037000C0C5403D49008D46704710B50446C04693
:10038000C0462046FFF7E7FE10BD0000004870475A
:10039000A000002001491820ABBEFEE726000200A5
:1003A000704772B6FEE70000F0B50023032498E022
:1003B00001259D402A407DD00E79B607B60F012E4B
:1003C00001D0022E16D186682746B4465E00B64696
:1003D000B7406646BE43B446CF687646B7406646E9
:1003E000374387604668AE430D79ED06ED0F9D40BB
:1003F000354345600D79ED43AD0708D0C5685F0012
:100400002646BE40B5438E68BE402E43C6600D7979
:10041000AD07AD0F022D0ED1DD08AD002D18AC4695
:100420002D6A5E07F60E0F27B740BD430F69B74030
:100430002F4365462F6205685F002646BE40B543E0
:100440000E79B607B60FBE402E4306604D68AD0369
:10045000AD0F45D09E08264DB6007519AC462D6EE1
:100460009E07F60E0F27B740BD4305273F07B8424A
:1004700001D100270FE01F4FB84201D101270AE048
:100480001D4FB84201D1022705E01C4FB84201D1EF
:10049000032700E00527B7402F4365462F66144E1B
:1004A000803635684F689543FF0300D515433560A6
:1004B000756800E014E04F689543BF0300D515430D
:1004C00075600B4E35684F689543FF0200D51543A4
:1004D000356075684F689543BF0200D51543756058
:1004E0005B1C0A681546DD4000D061E7F0BD0000E6
:1004F000001802400004005000080050000C00509A
:10050000002A01D08161704781627047014880688C
:1005100070470000000000200248816802788918B6
:10052000816070470000002010B508480024016871
:10053000821511430160032000F00AF8002801D061
:10054000012401E000F028F8204610BD0020024000
:1005500070B50F4E002431780546002915D07D2056
:10056000C000FFF73BFE01460A480068FFF736FE71
:1005700000F0EEFB002808D1042D06D20022294607
:10058000401E00F01FF8756000E00124204670BD99
:10059000000000200C00002008B509480168012275
:1005A0001143016000681040009005484038C26B5C
:1005B00001040A43C263C06B0840009008BD0000FC
:1005C0004010024010B500F059FF10BD10B50F4C9F
:1005D000216803225202914301432160C11FFF3968
:1005E000FA390ED10A480621006848430949FFF745
:1005F000F5FD401C02E0002805D0401E6169490558
:10060000F9D4002010BD032010BD00000070004090
:100610000C00002040420F00F8B504460068002698
:100620004D4D800358D54C4800274038C06BC00062
:1006300009D449484038C26B01040A43C263C06B05
:100640000840012700904548016882151143016068
:10065000FFF75CFF009005E0FFF758FF0099401A94
:10066000022825D83D480068C005F5D5E869032172
:10067000090208400FD0616981420CD0E86903216A
:100680000902EA698843012109040A43EA61EA6927
:100690008A43EA61E861C0070FD0FFF737FF009097
:1006A00008E0FFF733FF0099411A2D48814201D934
:1006B000032609E0E8698007F3D5E8690321090208
:1006C000884361690843E861002F05D0224840381B
:1006D000C26B01048A43C2632078C00705D06869F1
:1006E000616880088000084368612078800606D52C
:1006F0006869032109038843A16808436861208869
:10070000400411D568692169800080080843686148
:10071000012120698907884206D10F484038C16805
:10072000012212041143C1602088000512D56869B6
:10073000032189038843E168084368610121E06877
:100740008903884206D104484038C1680122120456
:100750001143C1603046F8BD4010024000700040B7
:1007600088130000F8B50F46060043D04D4D2868A9
:100770004007400FB84213D22868C008C000384371
:100780002860FFF7C3FE044605E0FFF7BFFE011B2C
:100790004548814261D828684007400FB842F4D1EB
:1007A0003068424C81070DD5400704D5A068072169
:1007B00009030843A060A0680F2109028843B168BB
:1007C0000843A0603078C00732D0706801280AD092
:1007D00002280BD000280FD03449403103280ED016
:1007E000C969890704E02168890301E0216889015A
:1007F000002906DB0120F8BD21684905F8E7096AF0
:10080000EFE7A168C908C9000143A160FFF77EFEB8
:10081000009006E0FFF77AFE0099411A22488142D3
:100820001BD8A068382108407168C9008842F1D1FE
:1008300028684007400FB84217D91A480168C9080C
:10084000C90039430160FFF761FE054607E0FFF785
:100850005DFE411B1448814201D90320F8BD1148B7
:1008600000684007400FB842F1D13078400706D504
:10087000A068072109038843F1680843A06000F0DD
:1008800031F8A1683C2289091140094A515CC90626
:10089000C90EC8400749086007480068FFF758FEBE
:1008A000F8BD000000200240881300000010024044
:1008B000FC1400080C000020040000200648074932
:1008C00000688968064A4904490F8900515CC906D5
:1008D000C90EC840704700000C0000200010024004
:1008E0003C15000810B5204CA068204A8006400F37
:1008F00016D0A0688006410F501001290FD0A168C2
:100900008906490F022912D0A0688006400F0428EA
:1009100023D0A0688006400F032821D0002010BDFE
:10092000206801218004400F8140104612E0E168F8
:100930008B07E1689B0F4906490F491C032B00D028
:100940001046FFF74BFCE1684904490E4843E16853
:10095000490F491CFFF742FC10BD0120C00310BD28
:100960007D20000210BD0000001002400024F400B1
:10097000F8B504007ED020783827C007EB4D00285A
:1009800046D0A868E96838408907890F102802D046
:1009900008280BD001E0032908D001206268000478
:1009A00082420AD129680143296015E02868800342
:1009B0002ED560680028DDD02AE0052301211B0424
:1009C00089049A422A6802D10A432A60EAE78243EC
:1009D0002A60286888432860606800280CD0FFF7E8
:1009E00095FD064604E0FFF791FD801B642873D84F
:1009F00028688003F7D50BE0FFF788FD064604E082
:100A0000FFF784FD801B6428F1D828688003F7D4A1
:100A10002078800769D5A868E96838408A070721E7
:100A2000920FC902102802D0002813D001E0022A38
:100A300010D0E068002846D0286888432169084320
:100A400028602868FF21013108432860FFF75EFD18
:100A500006462CE02A68520502D5E268002A89D0B1
:100A60006A687F231B029A4363691B021A436A6008
:100A7000002800E08DE00ED12868884321690843F2
:100A80002860286801218004400F8140A848FFF7B2
:100A9000A5FBA8490860A8480068FFF759FD002891
:100AA00077D122E0FFF732FD801B02289FD828680B
:100AB0004005F7D568687F2109028843616909020A
:100AC0000843686011E02968FF20013081432960F4
:100AD000FFF71CFD064605E098E0FFF717FD801BB9
:100AE000022884D828684005F7D42078934E000760
:100AF0002ED5A8688006400F03280AD0A0690028D8
:100B0000306A16D0012108433062FFF7FFFC074628
:100B10000BE0306A80071BD5A06900289FD017E042
:100B2000FFF7F4FCC01B022870D8306A8007F7D5A5
:100B30000EE0400840003062FFF7E8FC074604E0A2
:100B4000FFF7E4FCC01B022860D8306A8007F7D4A6
:100B5000207840076CD5A86800278006400F04283D
:100B600018D0E86BC00008D4E96B012000070143EE
:100B7000E963E96B01400127009171480168C905EB
:100B800019D40168821511430160FFF7BFFC009082
:100B90000DE083E0F06980074AD5A06800287DD089
:100BA00046E0FFF7B3FC0099401A02282ED86448AB
:100BB0000068C005F5D5A168012910D004200529D9
:100BC000F16911D049084900F161F1698143F1618E
:100BD000A068002816D0FFF799FC00900EE0F0699D
:100BE00001210843F061F3E70143F161F7E7FFF703
:100BF0008DFC0099411A534881426DD8F0698007F5
:100C0000F5D50EE0FFF782FC009007E064E0FFF707
:100C10007DFC0099411A4B4881425DD8F0698007FC
:100C2000F5D4002F04D0E96B012000078143E9636C
:100C3000E069002877D0A9688906490F022951D0B8
:100C400001263606022828680DD0B0432860E868DF
:100C500080088000E860E8683B490840E860FFF7EA
:100C600055FC04463AE0B0432860FFF74FFC0746C6
:100C700004E0FFF74BFCC01B02282DD82868800138
:100C8000F7D4616A206AA26A0843E16A120211433A
:100C90000843216B0843E9682C4A00E041E0114019
:100CA0000843E860286830432860E86801210907A4
:100CB0000843E860FFF72AFC044604E0FFF726FC3F
:100CC000001B022808D828688001F7D52BE0FFF721
:100CD0001DFC001B022801D90320F8BD28688001F3
:100CE000F5D420E00128F8D0E868226A8107890F4E
:100CF000914216D17021626A0140914211D17F2147
:100D0000A26A09020140120291420AD11F2149043C
:100D1000E26A0140914204D1400F216B40078842B2
:100D200001D00120F8BD0020F8BD000000100240F5
:100D30000024F4000C0000200400002040100240B9
:100D40000070004088130000FFFFFEEF8C80C11F81
:100D5000094910B5401E884201D9012010BD074C39
:100D600060610321081F00F089FB0020A0610720BB
:100D70002061002010BD0000FFFFFF0000E000E048
:100D800010B5014680310A78012A15D001220A7077
:100D900024224A60026813681468640864001460BE
:100DA000012252079343002242660068036020201C
:100DB00048600A70104610BD022010BD70B5044690
:100DC00005468034207801281AD001202070242084
:100DD000606028680668026852085200026028684D
:100DE000826807235B069A430A438260284600F024
:100DF0006DF928680660202060600020207070BDBA
:100E0000022070BD70B50446054680342078012864
:100E100019D00120207024206060286806680268CC
:100E200052085200026028688268D200D2080A4341
:100E30008260284600F04AF9286806602020606039
:100E40000020207070BD022070BD70B5040005D078
:100E5000254680356868002802D006E0012070BD74
:100E600000202870204600F027F8242068602068C1
:100E70000168490849000160204600F0E1F90128B5
:100E8000EDD0A06A002802D0204600F041F9206889
:100E900041680922D20291434160206881682A2278
:100EA000914381602068016801221143016020465E
:100EB00000F094F970BD000010B58CB00446142108
:100EC0006846FFF789F9182105A8FFF785F9184941
:100ED0002068884229D10124059405A80694FFF7CB
:100EE0009BFB002801D0FFF75CFA12480268012141
:100EF00089030A430260006808400B900D4840389F
:100F0000416B21434163406B6946C007C00F0B90A2
:100F100003204002009002200190002002900390E4
:100F2000052004940007FFF73FFA0CB010BD000045
:100F30000038014040100240FEE70000F0B587B0E5
:100F400014216846FFF748F92648426B04210A43FA
:100F50004263426B0A400592426B20210A4342637E
:100F6000426B0A400592416B012421434163416B6E
:100F700021400591416B022529434163406B0526C1
:100F80002840360705900022C0213046FFF7B8FA06
:100F90000194C020002400900294694630460394D6
:100FA000FFF702FA112000040F4F019069460095E7
:100FB00002943846FFF7F8F9A803009002940394CE
:100FC0006946019504943046FFF7EEF93820009009
:100FD000029403946946019504943846FFF7E4F9B6
:100FE00007B0F0BD001002400004005010B51848D2
:100FF00016490160E1214902416000218160C16020
:1010000001618161C16101620C22416242618162C0
:10101000FFF71BFF002801D0FFF7C3F900210C48A0
:10102000FFF7F0FE002801D0FFF7BBF900210848C8
:10103000FFF7C4FE002801D0FFF7B3F90448FFF71B
:101040009FFE002801D0FFF7ACF910BD0038014029
:1010500010000020FEE77047704710B5FFF75CFAFC
:1010600010BD30B591B034216846FFF7B5F80024C3
:1010700001200D940E940F9440021094FFF7A6FAED
:1010800001200090000401900320089010200A9095
:10109000400302250B90079500030C9009946846C5
:1010A000FFF766FC002801D072B6FEE707200D901E
:1010B0000F9402210E9510940DA8FFF753FB002802
:1010C00001D072B6FEE711B030BD7047F8B50446E6
:1010D000416E4034002915D000688168806809019C
:1010E0004D0F0A4E400F3746315C083F385CC00058
:1010F000FFF774F86085785D715DC000FFF76EF8EA
:101100002085F8BD01206085FAE70000F214000890
:1011100010B5018DC90707D001684A6801235B0437
:101120009A43C36A1A434A60018D890707D501684B
:101130004A6801231B049A43036B1A434A60018DDA
:10114000490707D501684A6801239B049A43436B0A
:101150001A434A60018D090707D501684A680123CF
:10116000DB039A43836B1A434A60018DC90607D596
:101170000268916801231B039943C36B1943916073
:10118000018D890607D501688A6801235B039A43AC
:10119000036C1A438A60018D490612D503685A68A8
:1011A00001210905446C8A4322435A60426C8A42F9
:1011B00007D10268516803235B059943836C194387
:1011C0005160018D090607D501684A680123DB04D7
:1011D000C06C9A4302434A6010BD0000FEB505464C
:1011E000002680350446EE60FFF790F901902068F4
:1011F0000068124F000709D5012100970022490518
:101200002046019B00F0D0F800280DD1206800682E
:1012100040070BD501210097002289052046019B3C
:1012200000F0C2F8002801D00320FEBD2020686035
:10123000A860E6662E700020FEBD0000FFFFFF01E3
:10124000F8B5044680682169E269084361690025B0
:1012500011432268084311684B4B19400143116048
:1012600021684868032212039043E26810434860F3
:10127000A169206A226808439168444B19400143E0
:1012800091602068C16A626A090909011143C1625B
:101290003F492068884211D13E4840698007800F4D
:1012A0000FD0012806D0022802D003280BD103E07A
:1012B000022109E0042107E0082105E036498842BF
:1012C00001D1002100E010210120E369C003334A6D
:1012D000334E344F834228D1002906D0022907D04B
:1012E000042907D0082941D108E0FFF7E7FA03E015
:1012F000104603E0FFF7F6FA00283BD0616A490088
:10130000715AFEF76BFF616840004A088018FEF7CB
:1013100065FF80B201461039B94227D82149491CDE
:1013200001400007400F084322E0002906D00229AF
:1013300007D0042907D0082918D108E0FFF7BEFA22
:1013400003E0104603E0FFF7CDFA002812D0616AEF
:101350004900715AFEF742FF61684A088018FEF79B
:101360003DFF80B201461039B94201D9012501E0A3
:101370002168C86020460121403041850185002058
:10138000206760672846F8BDF369FFCFFFF4FF11BF
:101390000038014040100240004400400024F400A6
:1013A000D2140008EFFF0000FFB581B005461746D4
:1013B000044680350A9E54E0701C52D0FFF7A6F810
:1013C0000499401AB0422FD8002E2DD02068016811
:1013D000490746D5C069C043000542D401202168B1
:1013E000C0020862EFF31080012181F310882168A8
:1013F0000B68FF22A13293430B6080F31088EFF358
:101400001080012181F3108821688A6852085200F7
:101410008A6080F3108820206860A860E86000205F
:101420002870032005B0F0BDEFF31080012181F397
:10143000108821680A68FF23A1339A430A6080F369
:101440001088EFF31080012181F3108821688A68E9
:10145000520852008A6080F3108820206860A860DB
:10146000DDE72068C1690298884304D00020B842B3
:10147000A2D00020D6E70120F9E700008307FF2271
:10148000DB0E9A408907090E9940002808DB830883
:1014900009489B001B181868904308431860704760
:1014A0000007000F0838830804489B001B18D86900
:1014B00090430843D861704700E400E000ED00E08D
:1014C000FFF732F8FFF7CDFDFFF738FDFFF78EFD90
:1014D000FEE7010002000400060008000A000C00FC
:1014E00010002000400080000001010101030701FD
:1014F00000000804020408010101000000000000CF
:1015000000000000000000000000000000000000DB
:1015100000000000000000000000000001000000CA
:1015200002000000030000000400000006000000AC
:101530000700000008000000090000000000000093
:10154000000000000000000000000000010000009A
:101550000200000003000000040000007C150008E9
:101560000000002010000000040100088C15000895
:1015700010000020F006000020010008010000001B
:0C15800004000000000000000024F40043
:04000005080000C12E
:00000001FF
