:10002600D2BBBCB6BFDAC1EEA3BAD0A1CAAFCDB7B8
:100036000D0A00B6FEBCB6BFDAC1EEA3BA31A1A264
:10004600B4FAC2EBB2E2CAD40D0A000932A1A2BFC9
:10005600AAB7A2B0E5D1E9D6A40D0A000933A1A238
:10006600BFAAB5C60D0A000934A1A2B9D8B5C60DF6
:100076000A00202035A1A2B1B1BEA90D0A00093699
:10008600A1A2C9CFBAA30D0A000937A1A2B9E3D626
:10009600DD0D0A00CAD5B5BD0D0A00A1B0B4FAC27D
:1000A600EBB2E2CAD4A1B1C3FCC1EECAB6B1F0B399
:1000B600C9B9A60D0A00A1B0BFAAB7A2B0E5D1E999
:1000C600D6A4A1B1C3FCC1EECAB6B1F0B3C9B9A6F4
:1000D6000D0A00A1B0BFAAB5C6A1B1C3FCC1EECA44
:1000E600B6B1F0B3C9B9A60D0A00A1B0B9D8B5C664
:1000F600A1B1C3FCC1EECAB6B1F0B3C9B9A60D0A27
:1001060000A1B0B1B1BEA9A1B1C3FCC1EECAB6B1DE
:10011600F0B3C9B9A60D0A00A1B0C9CFBAA3A1B15F
:10012600C3FCC1EECAB6B1F0B3C9B9A60D0A00A1A7
:10013600B0B9E3D6DDA1B1C3FCC1EECAB6B1F0B326
:10014600C9B9A60D0A00C7EBD6D8D0C2CAB6B1F057
:10015600B7A2BFDAC1EE0D0A00C7EBCBB5B3F6D234
:0A016600BBBCB6BFDAC1EE0D0A0003
:0609BF00011C00011B00F9
:10046500E4F5091200061208AB12082F120905E47B
:10047500781CF67BFF7A00792612092C7BFF7A001F
:10048500793912092C7BFF7A00795112092C7BFFEF
:100495007A00796212092C7BFF7A00796D12092C9A
:1004A5007BFF7A00797812092C7BFF7A0079841218
:1004B500092C7BFF7A00798F12092C781CE61460D1
:1004C5002C24F1601824DF60242431701C781C76FC
:1004D5000112079CEF7016781C7631801012001CF3
:1004E500781EEFF61206B48000E4781CF630C206DA
:0B04F50030C30320B4C512097580C09D
:1008AB00120999120999120993120999D2C0D2A26D
:1008BB00D2C1120999120999120993120999D2C03E
:1008CB00D2A2D2C1120999120999C2C0C2A2C2C145
:0108DB0022FA
:10097500D2C0120995C2C0D2A2C2C1120999C2C081
:0E098500C2A2D2C1120999C2C0C2A2C2C1222E
:100006007580FF7590FF75A0FF75B0FF75C0FFD2B4
:0600160089D2A8D2AF223E
:0A09B40000007F057E49DEFEDFFC37
:0109BE002216
:080951008F148E138D128C111E
:10095900E4F515F516F517F518781174FF120199D4
:0B096900EC4D4E4F60051209B480EE0B
:010974002260
:06099300C2C0C2A2C2C1F5
:0C0999007F117ED07D1BDDFEDEFCDFFA4E
:0109A500222F
:0300030002087080
:10087000C0E0C0F0C083C082C0D075D000C000C04E
:1008800001C002C003C004C005C006C007120500B5
:10089000D007D006D005D004D003D002D001D000BC
:0B08A000D0D0D082D083D0F0D0E03266
:1006B4008F0AE50A7011751B01D2C0D2A2D2C17B88
:1006C400FF7A00799A806EE51B64017062F51BE580
:1006D4000A24FE601E24FE602214602724EF602B8F
:1006E40014603024E86034242E703C7BFF7A007957
:1006F400A1802E7BFF7A0079BC80267BFF7A00796B
:10070400D9801E7BFF7A0079F080167BFF7A01790D
:1007140007800E7BFF7A01791E80067BFF7A0179C0
:100724003512092C0209757BFF7A01794C80067B0E
:09073400FF7A01795F12092C2201
:100285007869616F2073686920746F7500000000DC
:10029500000000006B61692066612062616E207953
:1002A500616E207A68656E67646169206D6120639F
:1002B5006520736869000000000000006B6169201B
:1002C50064656E670000000000000000000000008B
:1002D5006775616E2064656E6700000000000000B0
:1002E50000000000626569206A696E670000000011
:1002F50000000000000000007368616E67206861FF
:100305006900000000000000000000006775616ED4
:1003150067207A686F75000000000000000000008B
:08032500000201040516172F68
:10082F00D2B37F057E007D007C00120951C2B37FD9
:10083F00057E007D007C00120951D2B37F057E003A
:10084F007D007C00120951C2A17F057E007D007CD6
:10085F0000120951D2A17F057E007D007C000209A4
:01086F005137
:10032D007F061209D57D357F171209CA7F0A7E0017
:10033D007D007C001209517F061209D57D037F894E
:10034D001209CA7F057E007D007C001209517D4394
:10035D007FCF1209CA7F057E007D007C00120951F6
:10036D007D027FCB1209CA7D0A7F111209CAE4FDF5
:10037D007F1E1209CA7D3F7F191209CA7D487F1B56
:10038D001209CA7D1F7F1D1209CA7F0A7E007D00DA
:10039D007C001209517D047FCD1209CA7F057E00B4
:1003AD007D007C00120951E4FD7FB91209CA7D4F11
:0C03BD007FCF1209CA7DFF7F6F0209CAC2
:10073D0012032DE4FD7FBD1209CA7D487F171209F2
:10074D00CA7F0A7E007D007C001209517D807F3CAE
:10075D001209CA7D077F3E1209CA7DFF7F38120933
:10076D00CA7D077F3A1209CAE4FD7F401209CA7D8E
:10077D00087F421209CAE4FD7F441209CA7D087F31
:0F078D00461209CA7F017E007D007C00020951DF
:10050000E4F508C2A87F2B1209D5781DA607E4FDE3
:100510007F291209CAE4FD7F021209CA781DE6305C
:10052000E42D7FB21209D5EF642170237FBF120939
:10053000D5BF351B7FBA1209D58F08E508D39400C3
:10054000400DE508D394045006781C76108004789A
:100550001C7611E4FD7F2B1209CAE4FD7F1C1209F1
:10056000CAE4FD7F291209CAE4FD7F021209CAE428
:10057000FD7F2B1209CAE4FD7FBA1209CAE4FD7F90
:10058000BC1209CA7D017F081209CAE4FD7F081266
:0405900009CAD2A81A
:010594002244
:10079C00E4F50AF50BF50A1209E07F327E007D00C4
:1007AC007C001209511203C9EF700280117F0A7E7E
:1007BC00007D007C00120951120595EF7010120893
:1007CC002F7F327E007D007C001209518005750B55
:0E07DC00018009050AE50AC3940540BBAF0B76
:0107EA0022EC
:1008DC00E4F510F50F7FB21209D5BF210575100193
:1008EC0080147F0A7E007D007C00120951050FE503
:0808FC000FC3940A40DFAF10A6
:0109040022D0
:0309E00002073DCE
:10059500C2A87D557F351209CA7D097F1C1209CA7B
:1005A5007D207FBD1209CA7D017F081209CA7F011E
:1005B5007E007D007C00120951E4FD7F081209CA06
:1005C5007F017E007D007C001209511208DCEF706E
:1005D50002FF227D0B7F1C1209CA7DFF7FB2120923
:1005E500CA7F017E007D007C001209517D067F37A0
:1005F5001209CA7F017E007D007C001209517D062B
:100605007F371209CA7F057E007D007C00120951E3
:100615007D107F291209CAE4FD7FBD1209CAD2A83F
:030625007F012230
:1003C900750D01E4F50C1208DCEF7005F50D02045A
:1003D90062E50C90032593FD7FC11209CAE4FD7FF4
:1003E900C31209CA7D047F081209CA7F017E007DF4
:1003F900007C00120951E4FD7F081209CA7F017EC1
:10040900007D007C00120951E4F50EE50C75F0142D
:10041900A42485F582E43402F583E582250EF5826C
:10042900E43583F583E493FD600E7F051209CA055F
:100439000EE50EC3941440D3AD0E7FB91209CA7DDF
:10044900FF7FB21209CA7D047F371209CA050CE57C
:0B0459000CC3940850030203CFAF0D4A
:010464002275
:06001C007FC51209D52288
:0B09CA00908100EFF0908000EDF02223
:0B09D500908100EFF0908000E0FF2216
:0409C500021925806E
:10090500759850758920AE19AF1AAB07AA06E4F998
:10091500F8FF7EE1FDFC1207EB1201898F8B8F8DAD
:07092500D28ED2ACD2AF224A
:03002300020022B6
:0100220032AB
:0E09A600C2ACC2998F993099FDC299D2AC2291
:10092C008B0B8A0C890DAB0BAA0CA90D12017060F4
:10093C0013050DE50D7002050C14F9120170FF1270
:05094C0009A680E22273
:03000000020628CD
:0C062800787FE4F6D8FD75811E02066F95
:10017000BB010689828A83E0225002E722BBFE028D
:09018000E32289828A83E49322C0
:1007EB00C2D5E830E70FB2D5E4C39BFBE49AFAE439
:1007FB0099F9E498F8EC30E717B2D51208211201F9
:10080B00F3E4C39BFBE49AFAE499F9E498F88003C8
:10081B001201F330D50DE4C39FFFE49EFEE49DFD72
:04082B00E49CFC222B
:0E018900C3E49FFFE49EFEE49DFDE49CFC2287
:100197007401FF3395E0FEFDFC080808E6CF2FF653
:1001A70018E6CE3EF618E6CD3DF618E6CC3CF6222C
:10063400020465E493A3F8E493A34003F68001F273
:1006440008DFF48029E493A3F85407240CC8C333C7
:10065400C4540F4420C8834004F456800146F6DF96
:10066400E4800B01020408102040809009BFE47E5E
:10067400019360BCA3FF543F30E509541FFEE4938B
:10068400A360010ECF54C025E060A840B8E493A352
:10069400FAE493A3F8E493A3C8C582C8CAC583CA7D
:1006A400F0A3C8C582C8CAC583CADFE9DEE780BE35
:0109C900002D
:1001B70075F008758200EF2FFFEE33FECD33CDCCFF
:1001C70033CCC58233C5829BED9AEC99E582984082
:1001D7000CF582EE9BFEED9AFDEC99FC0FD5F0D65F
:1001E700E4CEFBE4CDFAE4CCF9A88222B800C1B989
:1001F7000059BA002DEC8BF084CFCECDFCE5F0CBC7
:10020700F97818EF2FFFEE33FEED33FDEC33FCEBFF
:1002170033FB10D703994004EB99FB0FD8E5E4F9BA
:10022700FA227818EF2FFFEE33FEED33FDEC33FCA7
:10023700C933C910D7059BE99A4007EC9BFCE99A9B
:10024700F90FD8E0E4C9FAE4CCFB2275F010EF2FE0
:10025700FFEE33FEED33FDCC33CCC833C810D707E0
:100267009BEC9AE899400AED9BFDEC9AFCE899F81B
:0E0277000FD5F0DAE4CDFBE4CCFAE4C8F922AE
:00000001FF
