:10002600D2BBBCB6BFDAC1EEA3BAD0A1CAAFCDB7B8
:100036000D0A00B6FEBCB6BFDAC1EEA3BA31A1A264
:10004600B4FAC2EBB2E2CAD40D0A000932A1A2BFC9
:10005600AAB7A2B0E5D1E9D6A40D0A000933A1A238
:10006600BFAAB5C60D0A000934A1A2B9D8B5C60DF6
:100076000A00202035A1A2B1B1BEA90D0A00093699
:10008600A1A2C9CFBAA30D0A000937A1A2B9E3D626
:10009600DD0D0A00CAD5B5BD0D0A00A1B0B4FAC27D
:1000A600EBB2E2CAD4A1B1C3FCC1EECAB6B1F0B399
:1000B600C9B9A60D0A00A1B0BFAAB7A2B0E5D1E999
:1000C600D6A4A1B1C3FCC1EECAB6B1F0B3C9B9A6F4
:1000D6000D0A00A1B0BFAAB5C6A1B1C3FCC1EECA44
:1000E600B6B1F0B3C9B9A60D0A00A1B0B9D8B5C664
:1000F600A1B1C3FCC1EECAB6B1F0B3C9B9A60D0A27
:1001060000A1B0B1B1BEA9A1B1C3FCC1EECAB6B1DE
:10011600F0B3C9B9A60D0A00A1B0C9CFBAA3A1B15F
:10012600C3FCC1EECAB6B1F0B3C9B9A60D0A00A1A7
:10013600B0B9E3D6DDA1B1C3FCC1EECAB6B1F0B326
:10014600C9B9A60D0A00C7EBD6D8D0C2CAB6B1F057
:10015600B7A2BFDAC1EE0D0A00C7EBCBB5B3F6D234
:0A016600BBBCB6BFDAC1EE0D0A0003
:0609E300011C00011B00D5
:10051200E4F5091200061208CF120853120929E461
:10052200781CF67BFF7A0079261209507BFF7A004D
:1005320079391209507BFF7A0079511209507BFFF9
:100542007A0079621209507BFF7A00796D120950A4
:100552007BFF7A0079781209507BFF7A0079841246
:1005620009507BFF7A00798F120950781CE61460DB
:100572002C24F1601824DF60242431701C781C764E
:10058200011207C0EF7016781C76318010120A042F
:10059200781EEFF61202858000E4781CF630C2065F
:0B05A20030C30320B4C512099980C0CB
:1008CF001209BD1209BD1209B71209BDD2C0D2A2B9
:1008DF00D2C11209BD1209BD1209B71209BDD2C08A
:1008EF00D2A2D2C11209BD1209BDC2C0C2A2C2C1D9
:0108FF0022D6
:10099900D2C01209B9C2C0D2A2C2C11209BDC2C015
:0E09A900C2A2D2C11209BDC2C0C2A2C2C122E6
:100006007580FF75A0FF75B0FF75C0FFE4F59175AB
:0B00160092FFF590D289D2A8D2AF2251
:0A09D80000007F057E49DEFEDFFC13
:0109E20022F2
:080975008F148E138D128C11FA
:10097D00E4F515F516F517F518781174FF120199B0
:0B098D00EC4D4E4F60051209D880EEC3
:01099800223C
:0609B700C2C0C2A2C2C1D1
:0C09BD007F117ED07D1BDDFEDEFCDFFA2A
:0109C900220B
:030003000208945C
:10089400C0E0C0F0C083C082C0D075D000C000C02A
:1008A40001C002C003C004C005C006C0071205ADE4
:1008B400D007D006D005D004D003D002D001D00098
:0B08C400D0D0D082D083D0F0D0E03242
:100285008F0AE50A7012751B01D2C0D2A2D2C17BBA
:10029500FF7A00799A02032EE51B640160030203CD
:1002A50028F51BE50A24FE602324FE602C14603625
:1002B50024EF603F14604924E86052242E705C7B73
:1002C500FF7A0079A1120950D290804C7BFF7A0009
:1002D50079BC120950D291803F7BFF7A0079D912FF
:1002E5000950D2928032C2927BFF7A0079F01209CE
:1002F5005080257BFF7A017907120950D293801827
:100305007BFF7A01791E120950D294800B7BFF7A0C
:10031500017935120950D2950209997BFF7A017945
:0D0325004C80067BFF7A01795F120950229F
:100332007869616F2073686920746F75000000002E
:10034200000000006B61692066612062616E2079A5
:10035200616E207A68656E67646169206D612063F1
:100362006520736869000000000000006B6169206D
:1003720064656E67000000000000000000000000DD
:100382006775616E2064656E670000000000000002
:1003920000000000626569206A696E670000000063
:1003A20000000000000000007368616E6720686151
:1003B2006900000000000000000000006775616E27
:1003C20067207A686F7500000000000000000000DE
:0803D200000201040516172FBB
:10085300D2B37F057E007D007C00120975C2B37F91
:10086300057E007D007C00120975D2B37F057E00F2
:100873007D007C00120975C2A17F057E007D007C8E
:1008830000120975D2A17F057E007D007C0002095C
:0108930075EF
:1003DA007F061209F97D357F171209EE7F0A7E0022
:1003EA007D007C001209757F061209F97D037F8959
:1003FA001209EE7F057E007D007C001209757D439F
:10040A007FCF1209EE7F057E007D007C0012097500
:10041A007D027FCB1209EE7D0A7F111209EEE4FDFF
:10042A007F1E1209EE7D3F7F191209EE7D487F1B60
:10043A001209EE7D1F7F1D1209EE7F0A7E007D00E4
:10044A007C001209757D047FCD1209EE7F057E00BE
:10045A007D007C00120975E4FD7FB91209EE7D4F1B
:0C046A007FCF1209EE7DFF7F6F0209EECC
:100761001203DAE4FD7FBD1209EE7D487F171209FD
:10077100EE7F0A7E007D007C001209757D807F3C42
:100781001209EE7D077F3E1209EE7DFF7F381209C7
:10079100EE7D077F3A1209EEE4FD7F401209EE7DFE
:1007A100087F421209EEE4FD7F441209EE7D087FC5
:0F07B100461209EE7F017E007D007C0002097573
:1005AD00E4F508C2A87F2B1209F9781DA607E4FD12
:1005BD007F291209EEE4FD7F021209EE781DE63067
:1005CD00E42D7FB21209F9EF642170237FBF120968
:1005DD00F9BF351B7FBA1209F98F08E508D39400CE
:1005ED00400DE508D394045006781C7610800478ED
:1005FD001C7611E4FD7F2B1209EEE4FD7F1C120920
:10060D00EEE4FD7F291209EEE4FD7F021209EEE40E
:10061D00FD7F2B1209EEE4FD7FBA1209EEE4FD7F9A
:10062D00BC1209EE7D017F081209EEE4FD7F081270
:04063D0009EED2A848
:010641002296
:1007C000E4F50AF50BF50A120A0A7F327E007D0075
:1007D0007C00120975120476EF700280117F0A7E88
:1007E000007D007C00120975120642EF701012089D
:1007F000537F327E007D007C001209758005750BE9
:0E080000018009050AE50AC3940540BBAF0B51
:01080E0022C7
:10090000E4F510F50F7FB21209F9BF21057510014A
:1009100080147F0A7E007D007C00120975050FE5BA
:080920000FC3940A40DFAF1081
:0109280022AC
:030A0A000207617F
:10064200C2A87D557F351209EE7D097F1C1209EE85
:100652007D207FBD1209EE7D017F081209EE7F0128
:100662007E007D007C00120975E4FD7F081209EE10
:100672007F017E007D007C00120975120900EF7077
:1006820002FF227D0B7F1C1209EE7DFF7FB2120951
:10069200EE7F017E007D007C001209757D067F37AA
:1006A2001209EE7F017E007D007C001209757D0635
:1006B2007F371209EE7F057E007D007C00120975EE
:1006C2007D107F291209EEE4FD7FBD1209EED2A84A
:0306D2007F012283
:10047600750D01E4F50C120900EF7005F50D020586
:100486000FE50C9003D293FD7FC11209EEE4FD7FC8
:10049600C31209EE7D047F081209EE7F017E007DFE
:1004A600007C00120975E4FD7F081209EE7F017ECB
:1004B600007D007C00120975E4F50EE50C75F0145C
:1004C600A42432F582E43403F583E582250EF58211
:1004D600E43583F583E493FD600E7F051209EE058E
:1004E6000EE50EC3941440D3AD0E7FB91209EE7D0E
:1004F600FF7FB21209EE7D047F371209EE050CE587
:0B0506000CC39408500302047CAF0DEE
:0105110022C7
:060A04007FC51209F92272
:0B09EE00908100EFF0908000EDF022FF
:0B09F900908100EFF0908000E0FF22F2
:0409E900021925804A
:10092900759850758920AE19AF1AAB07AA06E4F974
:10093900F8FF7EE1FDFC12080F1201898F8B8F8D64
:07094900D28ED2ACD2AF2226
:03002300020021B7
:0100210032AC
:0E09CA00C2ACC2998F993099FDC299D2AC226D
:100950008B0B8A0C890DAB0BAA0CA90D12017060D0
:1009600013050DE50D7002050C14F9120170FF124C
:0509700009CA80E2222B
:030000000206D520
:0C06D500787FE4F6D8FD75811E02071C3A
:10017000BB010689828A83E0225002E722BBFE028D
:09018000E32289828A83E49322C0
:10080F00C2D5E830E70FB2D5E4C39BFBE49AFAE414
:10081F0099F9E498F8EC30E717B2D51208451201B0
:10082F00F3E4C39BFBE49AFAE499F9E498F88003A4
:10083F001201F330D50DE4C39FFFE49EFEE49DFD4E
:04084F00E49CFC2207
:0E018900C3E49FFFE49EFEE49DFDE49CFC2287
:100197007401FF3395E0FEFDFC080808E6CF2FF653
:1001A70018E6CE3EF618E6CD3DF618E6CC3CF6222C
:1006E100020512E493A3F8E493A34003F68001F218
:1006F10008DFF48029E493A3F85407240CC8C3331A
:10070100C4540F4420C8834004F456800146F6DFE8
:10071100E4800B01020408102040809009E3E47E8C
:10072100019360BCA3FF543F30E509541FFEE493DD
:10073100A360010ECF54C025E060A840B8E493A3A4
:10074100FAE493A3F8E493A3C8C582C8CAC583CACF
:10075100F0A3C8C582C8CAC583CADFE9DEE780BE87
:0109ED000009
:1001B70075F008758200EF2FFFEE33FECD33CDCCFF
:1001C70033CCC58233C5829BED9AEC99E582984082
:1001D7000CF582EE9BFEED9AFDEC99FC0FD5F0D65F
:1001E700E4CEFBE4CDFAE4CCF9A88222B800C1B989
:1001F7000059BA002DEC8BF084CFCECDFCE5F0CBC7
:10020700F97818EF2FFFEE33FEED33FDEC33FCEBFF
:1002170033FB10D703994004EB99FB0FD8E5E4F9BA
:10022700FA227818EF2FFFEE33FEED33FDEC33FCA7
:10023700C933C910D7059BE99A4007EC9BFCE99A9B
:10024700F90FD8E0E4C9FAE4CCFB2275F010EF2FE0
:10025700FFEE33FEED33FDCC33CCC833C810D707E0
:100267009BEC9AE899400AED9BFDEC9AFCE899F81B
:0E0277000FD5F0DAE4CDFBE4CCFAE4C8F922AE
:00000001FF
