:10000600B4AEBFDAD4CBD0D0D6D02E2E2E2E0A0048
:10001600BFDAC1EEA3BA31A1A2B4FAC2EBB2E2CA08
:10002600D40A000932A1A2BFAAB7A2B0E5D1E9D687
:10003600A40A000933A1A2BCECB2E9CDEAB1CF0A09
:10004600000ACAB6B1F0C2EB3A00A1B0B4FAC2EBEC
:10005600B2E2CAD4A1B1C3FCC1EECAB6B1F0B3C90B
:10006600B9A60A00A1B0BFAAB7A2B0E5D1E9D6A445
:10007600A1B1C3FCC1EECAB6B1F0B3C9B9A60A00B4
:10008600A1B0BCECB2E9CDEAB1CFA1B1C3FCC1EEDF
:10009600CAB6B1F0B3C9B9A60A00BDF8C8EBD6D046
:0500A600B6CF2F6E0033
:0306C80001190015
:10014E00E4F50B12068B120583120675E47819F688
:10015E007BFF7A0079061206507BFF7A0079161221
:10016E0006507BFF7A0079291206507BFF7A0079C0
:10017E00391206507819E61460FA24F1601824DF5B
:10018E0060F224317056781976011205C4EF70E4CE
:10019E007819763180DE1206C2781BA6077BFF7AAD
:1001AE00007947120650781BE62430FF12069E781F
:1001BE001BE624FE600F146014240270197BFF7A74
:1001CE00007950800E7BFF7A00796A80067BFF7A79
:1001DE00007986120650E47819F68098E47819F6BC
:0201EE008092FD
:10068B007580FF7590FF75A0FF75B0F7D289D2A862
:03069B00D2AF22B9
:0804F3007F647E007D007C00A7
:0804FB008F168E158D148C1371
:10050300E4F517F518F582F583F517F518E4F58387
:10051300F582AF82AE83E4FCFDAB16AA15A914A83D
:1005230013D31206164006000000A380E50518E564
:0B05330018700205176405451770D210
:01053E00229A
:1005C400E4F50CF50DF50C1206CC1204F31201F04F
:1005D400EF7002800B7F0A1204F5120321EF7008FA
:1005E4001205831204F38005750D018009050CE5DD
:0805F4000CC3940540D1AF0DCA
:0105FC0022DC
:0300030002053FB4
:10053F00C0E0C0F0C083C082C0D075D000C000C082
:10054F0001C002C003C004C005C006C00712028C60
:10055F007BFF7A0079A0120650D007D006D005D0C5
:10056F0004D003D002D001D000D0D0D082D083D01D
:04057F00F0D0E032A6
:0B06AC00908100EFF0908000EDF02244
:0B06B700908100EFF0908000E0FF2237
:10049F00000000000000000000000000000000004D
:1004AF00000000006B61692066612062616E207937
:1004BF00616E207A68656E67646169206D61206383
:1004CF006520736869000000000000006A69616EB2
:1004DF00206368612077616E206269000000000070
:0404EF000002010303
:10058300D2B37F017E007D007C001204FBC2B37FE7
:10059300017E007D007C001204FBD2B37F017E004C
:1005A3007D007C001204FBC2A17F017E007D007CE4
:1005B300001204FBD2A17F017E007D007C000204B7
:0105C300FB3C
:1000AB007F061206B77D357F171206AC7F0A7E00DE
:1000BB007D007C001204FB7F061206B77D037F894F
:1000CB001206AC7F057E007D007C001204FB7D4395
:1000DB007FCF1206AC7F057E007D007C001204FBF7
:1000EB007D027FCB1206AC7D0A7F111206ACE4FDBC
:1000FB007F1E1206AC7D3F7F191206AC7D487F1B1D
:10010B001206AC7D1F7F1D1206AC7F0A7E007D00A0
:10011B007C001204FB7D047FCD1206AC7D4C7F1757
:10012B001206AC7F057E007D007C001204FBE4FD13
:10013B007FB91206AC7D4F7FCF1206AC7DFF7F6F70
:03014B000206ACFD
:100440001200ABE4FD7FBD1206AC7D487F1712069B
:10045000AC7F0A7E007D007C001204FB7D807F3C27
:100460001206AC7D077F3E1206AC7DFF7F38120678
:10047000AC7D077F3A1206ACE4FD7F401206AC7DEE
:10048000087F421206ACE4FD7F441206AC7D087F73
:0F049000461206AC7F017E007D007C000204FB5B
:10028C00E4F508C2A87F2B1206B7781AA607E4FD7E
:10029C007F291206ACE4FD7F021206AC781AE63018
:1002AC00E42D7FB21206B7EF642170237FBF1206D4
:1002BC00B7BF351B7FBA1206B78F08E508D3940079
:1002CC00400DE508D3940450067819761080047814
:1002DC00197611E4FD7F2B1206ACE4FD7F1C12068F
:1002EC00ACE4FD7F291206ACE4FD7F021206ACE4FF
:1002FC00FD7F2B1206ACE4FD7FBA1206ACE4FD7F49
:10030C00BC1206AC7D017F081206ACE4FD7F08121E
:04031C0006ACD2A8B1
:0103200022BA
:10062700E4F512F5117FB21206B7BF210575120165
:1006370080147F0A7E007D007C001204FB0511E513
:0806470011C3940A40DFAF1259
:01064F002288
:0306CC00020440E5
:10032100C2A87D437F351206AC7D097F1C1206AC45
:100331007D207FBD1206AC7D017F081206AC7F01D6
:100341007E007D007C001204FBE4FD7F081206ACF8
:100351007F017E007D007C001204FB120627EF70F6
:1003610002FF227D0B7F1C1206AC7DFF7FB21206BD
:10037100AC7F017E007D007C001204FB7D067F378F
:100381001206AC7F017E007D007C001204FB7D061D
:100391007F371206AC7F057E007D007C001204FBD6
:1003A1007D107F291206ACE4FD7FBD1206ACD2A8F8
:0303B1007F0122A7
:1001F000750F01E4F50E120627EF7005F50F0202E8
:1002000089E50E9004EF93FD7FC11206ACE4FD7FFB
:10021000C31206AC7D047F081206AC7F017E007D10
:10022000007C001204FBE4FD7F081206AC7F017E17
:10023000007D007C001204FBE4F510E50E75F0145F
:10024000A4249FF582E43404F583E5822510F58229
:10025000E43583F583E493FD600E7F051206AC055B
:1002600010E510C3941440D3AD107FB91206AC7DD5
:10027000FF7FB21206AC7D047F371206AC050EE597
:0B0280000EC3940450030201F6AF0F00
:01028B002250
:0606C2007FC51206B722FD
:10067500759850438920438780758DF443A890D29F
:060685008ED2ACD2AF22C0
:0E069E00C2ACC2998F993099FDC299D2AC229C
:100650008B0C8A0D890EAB0CAA0DA90E1205FD603C
:1006600013050EE50E7002050D14F91205FDFF12BB
:05067000069E80E2225D
:030000000203B444
:0C03B400787FE4F6D8FD75811B0203FB86
:1005FD00BB010689828A83E0225002E722BBFE02FC
:09060D00E32289828A83E493222E
:10061600EB9FF5F0EA9E42F0E99D42F0E89C45F03A
:0106260022B1
:1003C00002014EE493A3F8E493A34003F68001F204
:1003D00008DFF48029E493A3F85407240CC8C3333E
:1003E000C4540F4420C8834004F456800146F6DF0D
:1003F000E4800B01020408102040809006C8E47ECF
:10040000019360BCA3FF543F30E509541FFEE49301
:10041000A360010ECF54C025E060A840B8E493A3C8
:10042000FAE493A3F8E493A3C8C582C8CAC583CAF3
:10043000F0A3C8C582C8CAC583CADFE9DEE780BEAB
:0106CB00002E
:00000001FF
