:100026002020202020C6D5CDA8C4A3CABD20200DDF
:100036000A00BFDAC1EEA3BA31A1A2B4FAC2EBB28A
:10004600E2CAD40D0A000932A1A2BFAAB7A2B0E53E
:10005600D1E9D6A40D0A000933A1A2BFAAB5C60DDF
:100066000A000934A1A2B9D8B5C60D0A0020203568
:10007600A1A2B1B1BEA90D0A000936A1A2C9CFBA83
:10008600A30D0A000937A1A2B9E3D6DD0D0A00A126
:10009600B0B4FAC2EBB2E2CAD4A1B1C3FCC1EECA93
:1000A600B6B1F0B3C9B9A60D0A00A1B0BFAAB7A2EE
:1000B600B0E5D1E9D6A4A1B1C3FCC1EECAB6B1F090
:1000C600B3C9B9A60D0A00A1B0BFAAB5C6A1B1C3EE
:1000D600FCC1EECAB6B1F0B3C9B9A60D0A00A1B00B
:1000E600B9D8B5C6A1B1C3FCC1EECAB6B1F0B3C9A1
:1000F600B9A60D0A00A1B0B1B1BEA9A1B1C3FCC198
:10010600EECAB6B1F0B3C9B9A60D0A00A1B0C9CFFF
:10011600BAA3A1B1C3FCC1EECAB6B1F0B3C9B9A6C0
:100126000D0A00A1B0B9E3D6DDA1B1C3FCC1EECA88
:10013600B6B1F0B3C9B9A60D0A00C7EBD6D8D0C27E
:0D014600CAB6B1F0B7A2BFDAC1EE0D0A00D3
:06097A00011C00011B003E
:10044800E4F5091200061208661207EA1208C0E469
:10045800781CF67BFF7A0079261208E77BFF7A0082
:1004680079381208E77BFF7A00794C1208E77BFF9E
:100478007A00795D1208E77BFF7A0079681208E74D
:100488007BFF7A0079731208E77BFF7A00797F1285
:1004980008E77BFF7A00798A1208E7781CE614607F
:1004A8002C24F1601824DF60242431701C781C7619
:1004B80001120757EF7016781C7631801012001C55
:1004C800781EEFF61206978000E4781CF630C20614
:0B04D80030C30320B4C512093080C0FF
:1008660012095412095412094E120954D2C0D2A2C6
:10087600D2C112095412095412094E120954D2C097
:10088600D2A2D2C1120954120954C2C0C2A2C2C114
:01089600223F
:10093000D2C0120950C2C0D2A2C2C1120954C2C050
:0E094000C2A2D2C1120954C2C0C2A2C2C122B8
:100006007580FF7590FF75A0FF75B0FF75C0FFD2B4
:0600160089D2A8D2AF223E
:0A096F0000007F057E49DEFEDFFC7C
:01097900225B
:08090C008F148E138D128C1163
:10091400E4F515F516F517F518781174FF12017C36
:0B092400EC4D4E4F600512096F80EE95
:01092F0022A5
:06094E00C2C0C2A2C2C13A
:0C0954007F117ED07D1BDDFEDEFCDFFA93
:010960002274
:0300030002082BC5
:10082B00C0E0C0F0C083C082C0D075D000C000C093
:10083B0001C002C003C004C005C006C0071204E318
:10084B00D007D006D005D004D003D002D001D00001
:0B085B00D0D0D082D083D0F0D0E032AB
:10069700EF24FE601E24FE602214602724EF602BE7
:1006A70014603024E86034242E703C7BFF7A007994
:1006B70095802E7BFF7A0079B080267BFF7A0079C0
:1006C700CD801E7BFF7A0079E480167BFF7A007964
:1006D700FB800E7BFF7A01791280067BFF7A017916
:1006E700291208E70209307BFF7A0179401208E7EF
:0106F70022E0
:100268006B61692066612062616E2079616E207A17
:1002780068656E67646169206D61206365207368D5
:1002880069000000000000006B61692064656E670A
:100298000000000000000000000000006775616EAB
:1002A8002064656E67000000000000000000000088
:1002B800626569206A696E6700000000000000003E
:1002C800000000007368616E6720686169000000C3
:1002D80000000000000000006775616E67207A6802
:1002E8006F75000000000000000000000000000022
:1002F80000000000000000000000000000000000F6
:080308000201040516172F0085
:1007EA00D2B37F057E007D007C0012090CC2B37F64
:1007FA00057E007D007C0012090CD2B37F057E00C5
:10080A007D007C0012090CC2A17F057E007D007C60
:10081A000012090CD2A17F057E007D007C0002092E
:01082A000CC1
:100310007F061209907D357F171209857F0A7E00BE
:100320007D007C0012090C7F061209907D037F89F5
:100330001209857F057E007D007C0012090C7D433B
:100340007FCF1209857F057E007D007C0012090C9D
:100350007D027FCB1209857D0A7F11120985E4FD9C
:100360007F1E1209857D3F7F191209857D487F1BFD
:100370001209857D1F7F1D1209857F0A7E007D0081
:100380007C0012090C7D047FCD1209857F057E005B
:100390007D007C0012090CE4FD7FB91209857D4FB8
:0C03A0007FCF1209857DFF7F6F02098569
:1006F800120310E4FD7FBD1209857D487F1712099A
:10070800857F0A7E007D007C0012090C7D807F3C7D
:100718001209857D077F3E1209857DFF7F38120902
:10072800857D077F3A120985E4FD7F401209857DA2
:10073800087F42120985E4FD7F441209857D087F00
:0F074800461209857F017E007D007C0002090CAE
:1004E300E4F508C2A87F2B120990781DA607E4FD46
:1004F3007F29120985E4FD7F02120985781DE63004
:10050300E42D7FB2120990EF642170237FBF12099B
:1005130090BF351B7FBA1209908F08E508D394006A
:10052300400DE508D394045006781C7610800478B7
:100533001C7611E4FD7F2B120985E4FD7F1C120953
:1005430085E4FD7F29120985E4FD7F02120985E414
:10055300FD7F2B120985E4FD7FBA120985E4FD7F37
:10056300BC1209857D017F08120985E4FD7F08120D
:040573000985D2A87C
:010577002261
:10075700E4F50AF50BF50A12099B7F327E007D004E
:100767007C0012090C1203ACEF700280117F0A7E25
:10077700007D007C0012090C120578EF701012073B
:10078700EA7F327E007D007C0012090C8005750B24
:0E079700018009050AE50AC3940540BBAF0BBB
:0107A5002231
:10089700E4F510F50F7FB2120990BF21057510011D
:1008A70080147F0A7E007D007C0012090C050FE58D
:0808B7000FC3940A40DFAF10EB
:0108BF002216
:03099B000206F859
:10057800C2A87D557F351209857D097F1C12098522
:100588007D207FBD1209857D017F081209857F01C5
:100598007E007D007C0012090CE4FD7F08120985AD
:1005A8007F017E007D007C0012090C120897EF7015
:1005B80002FF227D0B7F1C1209857DFF7FB2120985
:1005C800857F017E007D007C0012090C7D067F3747
:1005D8001209857F017E007D007C0012090C7D06D2
:1005E8007F371209857F057E007D007C0012090C8B
:1005F8007D107F29120985E4FD7FBD120985D2A8E7
:030608007F01224D
:1003AC00750D01E4F50C120897EF7005F50D0204BC
:1003BC0045E50C90030893FD7FC1120985E4FD7F90
:1003CC00C31209857D047F081209857F017E007D9B
:1003DC00007C0012090CE4FD7F081209857F017E68
:1003EC00007D007C0012090CE4F50EE50C75F01490
:1003FC00A42468F582E43402F583E582250EF582A7
:10040C00E43583F583E493FD600E7F0512098505C1
:10041C000EE50EC3941440D3AD0E7FB91209857D41
:10042C00FF7FB21209857D047F37120985050CE523
:0B043C000CC3940850030203B2AF0D84
:010447002292
:06001C007FC512099022CD
:0B098500908100EFF0908000EDF02268
:0B099000908100EFF0908000E0FF225B
:0409800002192580B3
:1008C000759850758920AE19AF1AAB07AA06E4F9DE
:1008D000F8FF7EE1FDFC1207A612016C8F8B8F8D55
:0708E000D28ED2ACD2AF2290
:03002300020022B6
:0100220032AB
:0E096100C2ACC2998F993099FDC299D2AC22D6
:1008E7008B0A8A0B890CAB0AAA0BA90C120153605D
:1008F70013050CE50C7002050B14F9120153FF12D6
:05090700096180E222FD
:0300000002060BEA
:0C060B00787FE4F6D8FD75811E020652CF
:10015300BB010689828A83E0225002E722BBFE02AA
:09016300E32289828A83E49322DD
:1007A600C2D5E830E70FB2D5E4C39BFBE49AFAE47E
:1007B60099F9E498F8EC30E717B2D51207DC120184
:1007C600D6E4C39BFBE49AFAE499F9E498F880032B
:1007D6001201D630D50DE4C39FFFE49EFEE49DFDD5
:0407E600E49CFC2271
:0E016C00C3E49FFFE49EFEE49DFDE49CFC22A4
:10017A007401FF3395E0FEFDFC080808E6CF2FF670
:10018A0018E6CE3EF618E6CD3DF618E6CC3CF62249
:10061700020448E493A3F8E493A34003F68001F2AD
:1006270008DFF48029E493A3F85407240CC8C333E4
:10063700C4540F4420C8834004F456800146F6DFB3
:10064700E4800B010204081020408090097AE47EC0
:10065700019360BCA3FF543F30E509541FFEE493A8
:10066700A360010ECF54C025E060A840B8E493A36F
:10067700FAE493A3F8E493A3C8C582C8CAC583CA9A
:10068700F0A3C8C582C8CAC583CADFE9DEE780BE52
:010984000072
:10019A0075F008758200EF2FFFEE33FECD33CDCC1C
:1001AA0033CCC58233C5829BED9AEC99E58298409F
:1001BA000CF582EE9BFEED9AFDEC99FC0FD5F0D67C
:1001CA00E4CEFBE4CDFAE4CCF9A88222B800C1B9A6
:1001DA000059BA002DEC8BF084CFCECDFCE5F0CBE4
:1001EA00F97818EF2FFFEE33FEED33FDEC33FCEB1D
:1001FA0033FB10D703994004EB99FB0FD8E5E4F9D8
:10020A00FA227818EF2FFFEE33FEED33FDEC33FCC4
:10021A00C933C910D7059BE99A4007EC9BFCE99AB8
:10022A00F90FD8E0E4C9FAE4CCFB2275F010EF2FFD
:10023A00FFEE33FEED33FDCC33CCC833C810D707FD
:10024A009BEC9AE899400AED9BFDEC9AFCE899F838
:0E025A000FD5F0DAE4CDFBE4CCFAE4C8F922CB
:00000001FF
